{
  "contracts/PizzaAndIceStore.sol": {
    "PizzaIceStore": {
      "abi": [
        {
          "inputs": [
            {
              "internalType": "contract IERC20",
              "name": "_pizzaToken",
              "type": "address"
            },
            {
              "internalType": "contract IERC20",
              "name": "_nairaToken",
              "type": "address"
            }
          ],
          "stateMutability": "nonpayable",
          "type": "constructor"
        },
        {
          "anonymous": false,
          "inputs": [
            {
              "indexed": true,
              "internalType": "address",
              "name": "buyer",
              "type": "address"
            },
            {
              "indexed": false,
              "internalType": "string",
              "name": "item",
              "type": "string"
            },
            {
              "indexed": false,
              "internalType": "uint256",
              "name": "amount",
              "type": "uint256"
            }
          ],
          "name": "Purchase",
          "type": "event"
        },
        {
          "anonymous": false,
          "inputs": [
            {
              "indexed": true,
              "internalType": "address",
              "name": "swapper",
              "type": "address"
            },
            {
              "indexed": false,
              "internalType": "uint256",
              "name": "nairaAmount",
              "type": "uint256"
            },
            {
              "indexed": false,
              "internalType": "uint256",
              "name": "pizzaTokenAmount",
              "type": "uint256"
            }
          ],
          "name": "Swap",
          "type": "event"
        },
        {
          "inputs": [],
          "name": "buyIceCream",
          "outputs": [],
          "stateMutability": "nonpayable",
          "type": "function"
        },
        {
          "inputs": [],
          "name": "buyPizza",
          "outputs": [],
          "stateMutability": "nonpayable",
          "type": "function"
        },
        {
          "inputs": [],
          "name": "iceCreamPrice",
          "outputs": [
            {
              "internalType": "uint256",
              "name": "",
              "type": "uint256"
            }
          ],
          "stateMutability": "view",
          "type": "function"
        },
        {
          "inputs": [],
          "name": "nairaToPizzaRate",
          "outputs": [
            {
              "internalType": "uint256",
              "name": "",
              "type": "uint256"
            }
          ],
          "stateMutability": "view",
          "type": "function"
        },
        {
          "inputs": [],
          "name": "nairaToken",
          "outputs": [
            {
              "internalType": "contract IERC20",
              "name": "",
              "type": "address"
            }
          ],
          "stateMutability": "view",
          "type": "function"
        },
        {
          "inputs": [],
          "name": "owner",
          "outputs": [
            {
              "internalType": "address",
              "name": "",
              "type": "address"
            }
          ],
          "stateMutability": "view",
          "type": "function"
        },
        {
          "inputs": [],
          "name": "pizzaPrice",
          "outputs": [
            {
              "internalType": "uint256",
              "name": "",
              "type": "uint256"
            }
          ],
          "stateMutability": "view",
          "type": "function"
        },
        {
          "inputs": [],
          "name": "pizzaToken",
          "outputs": [
            {
              "internalType": "contract IERC20",
              "name": "",
              "type": "address"
            }
          ],
          "stateMutability": "view",
          "type": "function"
        },
        {
          "inputs": [
            {
              "internalType": "uint256",
              "name": "nairaAmount",
              "type": "uint256"
            }
          ],
          "name": "swapNairaForPizza",
          "outputs": [],
          "stateMutability": "nonpayable",
          "type": "function"
        },
        {
          "inputs": [
            {
              "internalType": "uint256",
              "name": "_pizzaPrice",
              "type": "uint256"
            },
            {
              "internalType": "uint256",
              "name": "_iceCreamPrice",
              "type": "uint256"
            }
          ],
          "name": "updatePrices",
          "outputs": [],
          "stateMutability": "nonpayable",
          "type": "function"
        },
        {
          "inputs": [
            {
              "internalType": "uint256",
              "name": "_nairaToPizzaRate",
              "type": "uint256"
            }
          ],
          "name": "updateSwapRate",
          "outputs": [],
          "stateMutability": "nonpayable",
          "type": "function"
        },
        {
          "inputs": [
            {
              "internalType": "contract IERC20",
              "name": "token",
              "type": "address"
            },
            {
              "internalType": "uint256",
              "name": "amount",
              "type": "uint256"
            }
          ],
          "name": "withdrawTokens",
          "outputs": [],
          "stateMutability": "nonpayable",
          "type": "function"
        }
      ],
      "evm": {
        "bytecode": {
          "linkReferences": {},
          "object": "6080604052670de0b6b3a7640000600355671bc16d674ec8000060045560026005553480156200002e57600080fd5b506040516200127b3803806200127b83398181016040528101906200005491906200019c565b816000806101000a81548173ffffffffffffffffffffffffffffffffffffffff021916908373ffffffffffffffffffffffffffffffffffffffff16021790555080600160006101000a81548173ffffffffffffffffffffffffffffffffffffffff021916908373ffffffffffffffffffffffffffffffffffffffff16021790555033600260006101000a81548173ffffffffffffffffffffffffffffffffffffffff021916908373ffffffffffffffffffffffffffffffffffffffff1602179055505050620001e3565b600080fd5b600073ffffffffffffffffffffffffffffffffffffffff82169050919050565b6000620001508262000123565b9050919050565b6000620001648262000143565b9050919050565b620001768162000157565b81146200018257600080fd5b50565b60008151905062000196816200016b565b92915050565b60008060408385031215620001b657620001b56200011e565b5b6000620001c68582860162000185565b9250506020620001d98582860162000185565b9150509250929050565b61108880620001f36000396000f3fe608060405234801561001057600080fd5b50600436106100b45760003560e01c8063978039d111610071578063978039d114610153578063c9a7029d14610171578063d8fd0f4d1461018f578063ef88d7f014610199578063f4da7fe1146101b5578063fe2371cb146101d3576100b4565b806306b091f9146100b957806326a3e4da146100d55780633d8660fd146100f15780637a35eb66146100fb5780638da5cb5b14610117578063924720bd14610135575b600080fd5b6100d360048036038101906100ce9190610a57565b6101f1565b005b6100ef60048036038101906100ea9190610a97565b610364565b005b6100f9610588565b005b61011560048036038101906101109190610a97565b6106bb565b005b61011f610755565b60405161012c9190610ad3565b60405180910390f35b61013d61077b565b60405161014a9190610afd565b60405180910390f35b61015b610781565b6040516101689190610afd565b60405180910390f35b610179610787565b6040516101869190610afd565b60405180910390f35b61019761078d565b005b6101b360048036038101906101ae9190610b18565b6108c0565b005b6101bd610962565b6040516101ca9190610bb7565b60405180910390f35b6101db610986565b6040516101e89190610bb7565b60405180910390f35b600260009054906101000a900473ffffffffffffffffffffffffffffffffffffffff1673ffffffffffffffffffffffffffffffffffffffff163373ffffffffffffffffffffffffffffffffffffffff1614610281576040517f08c379a000000000000000000000000000000000000000000000000000000000815260040161027890610c2f565b60405180910390fd5b8173ffffffffffffffffffffffffffffffffffffffff1663a9059cbb600260009054906101000a900473ffffffffffffffffffffffffffffffffffffffff16836040518363ffffffff1660e01b81526004016102de929190610c4f565b6020604051808303816000875af11580156102fd573d6000803e3d6000fd5b505050506040513d601f19601f820116820180604052508101906103219190610cb0565b610360576040517f08c379a000000000000000000000000000000000000000000000000000000000815260040161035790610d29565b60405180910390fd5b5050565b6000600554826103749190610d78565b9050600160009054906101000a900473ffffffffffffffffffffffffffffffffffffffff1673ffffffffffffffffffffffffffffffffffffffff166323b872dd3330856040518463ffffffff1660e01b81526004016103d593929190610dba565b6020604051808303816000875af11580156103f4573d6000803e3d6000fd5b505050506040513d601f19601f820116820180604052508101906104189190610cb0565b610457576040517f08c379a000000000000000000000000000000000000000000000000000000000815260040161044e90610e3d565b60405180910390fd5b60008054906101000a900473ffffffffffffffffffffffffffffffffffffffff1673ffffffffffffffffffffffffffffffffffffffff1663a9059cbb33836040518363ffffffff1660e01b81526004016104b2929190610c4f565b6020604051808303816000875af11580156104d1573d6000803e3d6000fd5b505050506040513d601f19601f820116820180604052508101906104f59190610cb0565b610534576040517f08c379a000000000000000000000000000000000000000000000000000000000815260040161052b90610ea9565b60405180910390fd5b3373ffffffffffffffffffffffffffffffffffffffff167f77f92a1b6a1a11de8ca49515ad4c1fad45632dd3442167d74b90b304a3c7a758838360405161057c929190610ec9565b60405180910390a25050565b60008054906101000a900473ffffffffffffffffffffffffffffffffffffffff1673ffffffffffffffffffffffffffffffffffffffff166323b872dd33306004546040518463ffffffff1660e01b81526004016105e793929190610dba565b6020604051808303816000875af1158015610606573d6000803e3d6000fd5b505050506040513d601f19601f8201168201806040525081019061062a9190610cb0565b610669576040517f08c379a000000000000000000000000000000000000000000000000000000000815260040161066090610f3e565b60405180910390fd5b3373ffffffffffffffffffffffffffffffffffffffff167f7a5116c78a9e1ad902408eee81d2bc878da4de341babc5c94da8bb189d924dab6004546040516106b19190610faa565b60405180910390a2565b600260009054906101000a900473ffffffffffffffffffffffffffffffffffffffff1673ffffffffffffffffffffffffffffffffffffffff163373ffffffffffffffffffffffffffffffffffffffff161461074b576040517f08c379a000000000000000000000000000000000000000000000000000000000815260040161074290610c2f565b60405180910390fd5b8060058190555050565b600260009054906101000a900473ffffffffffffffffffffffffffffffffffffffff1681565b60035481565b60055481565b60045481565b60008054906101000a900473ffffffffffffffffffffffffffffffffffffffff1673ffffffffffffffffffffffffffffffffffffffff166323b872dd33306003546040518463ffffffff1660e01b81526004016107ec93929190610dba565b6020604051808303816000875af115801561080b573d6000803e3d6000fd5b505050506040513d601f19601f8201168201806040525081019061082f9190610cb0565b61086e576040517f08c379a000000000000000000000000000000000000000000000000000000000815260040161086590610f3e565b60405180910390fd5b3373ffffffffffffffffffffffffffffffffffffffff167f7a5116c78a9e1ad902408eee81d2bc878da4de341babc5c94da8bb189d924dab6003546040516108b69190611024565b60405180910390a2565b600260009054906101000a900473ffffffffffffffffffffffffffffffffffffffff1673ffffffffffffffffffffffffffffffffffffffff163373ffffffffffffffffffffffffffffffffffffffff1614610950576040517f08c379a000000000000000000000000000000000000000000000000000000000815260040161094790610c2f565b60405180910390fd5b81600381905550806004819055505050565b60008054906101000a900473ffffffffffffffffffffffffffffffffffffffff1681565b600160009054906101000a900473ffffffffffffffffffffffffffffffffffffffff1681565b600080fd5b600073ffffffffffffffffffffffffffffffffffffffff82169050919050565b60006109dc826109b1565b9050919050565b60006109ee826109d1565b9050919050565b6109fe816109e3565b8114610a0957600080fd5b50565b600081359050610a1b816109f5565b92915050565b6000819050919050565b610a3481610a21565b8114610a3f57600080fd5b50565b600081359050610a5181610a2b565b92915050565b60008060408385031215610a6e57610a6d6109ac565b5b6000610a7c85828601610a0c565b9250506020610a8d85828601610a42565b9150509250929050565b600060208284031215610aad57610aac6109ac565b5b6000610abb84828501610a42565b91505092915050565b610acd816109d1565b82525050565b6000602082019050610ae86000830184610ac4565b92915050565b610af781610a21565b82525050565b6000602082019050610b126000830184610aee565b92915050565b60008060408385031215610b2f57610b2e6109ac565b5b6000610b3d85828601610a42565b9250506020610b4e85828601610a42565b9150509250929050565b6000819050919050565b6000610b7d610b78610b73846109b1565b610b58565b6109b1565b9050919050565b6000610b8f82610b62565b9050919050565b6000610ba182610b84565b9050919050565b610bb181610b96565b82525050565b6000602082019050610bcc6000830184610ba8565b92915050565b600082825260208201905092915050565b7f4e6f7420746865206f776e657200000000000000000000000000000000000000600082015250565b6000610c19600d83610bd2565b9150610c2482610be3565b602082019050919050565b60006020820190508181036000830152610c4881610c0c565b9050919050565b6000604082019050610c646000830185610ac4565b610c716020830184610aee565b9392505050565b60008115159050919050565b610c8d81610c78565b8114610c9857600080fd5b50565b600081519050610caa81610c84565b92915050565b600060208284031215610cc657610cc56109ac565b5b6000610cd484828501610c9b565b91505092915050565b7f5769746864726177206661696c65640000000000000000000000000000000000600082015250565b6000610d13600f83610bd2565b9150610d1e82610cdd565b602082019050919050565b60006020820190508181036000830152610d4281610d06565b9050919050565b7f4e487b7100000000000000000000000000000000000000000000000000000000600052601160045260246000fd5b6000610d8382610a21565b9150610d8e83610a21565b9250828202610d9c81610a21565b91508282048414831517610db357610db2610d49565b5b5092915050565b6000606082019050610dcf6000830186610ac4565b610ddc6020830185610ac4565b610de96040830184610aee565b949350505050565b7f4e61697261546f6b656e207472616e73666572206661696c6564000000000000600082015250565b6000610e27601a83610bd2565b9150610e3282610df1565b602082019050919050565b60006020820190508181036000830152610e5681610e1a565b9050919050565b7f50697a7a61546f6b656e207472616e73666572206661696c6564000000000000600082015250565b6000610e93601a83610bd2565b9150610e9e82610e5d565b602082019050919050565b60006020820190508181036000830152610ec281610e86565b9050919050565b6000604082019050610ede6000830185610aee565b610eeb6020830184610aee565b9392505050565b7f5061796d656e74206661696c6564000000000000000000000000000000000000600082015250565b6000610f28600e83610bd2565b9150610f3382610ef2565b602082019050919050565b60006020820190508181036000830152610f5781610f1b565b9050919050565b7f49636520437265616d0000000000000000000000000000000000000000000000600082015250565b6000610f94600983610bd2565b9150610f9f82610f5e565b602082019050919050565b60006040820190508181036000830152610fc381610f87565b9050610fd26020830184610aee565b92915050565b7f50697a7a61000000000000000000000000000000000000000000000000000000600082015250565b600061100e600583610bd2565b915061101982610fd8565b602082019050919050565b6000604082019050818103600083015261103d81611001565b905061104c6020830184610aee565b9291505056fea26469706673582212203f40e62791b38a36e4441952b6287b84b36bdcda66ef786fc5bbbfef0d19ba6c64736f6c63430008180033",
          "opcodes": "PUSH1 0x80 PUSH1 0x40 MSTORE PUSH8 0xDE0B6B3A7640000 PUSH1 0x3 SSTORE PUSH8 0x1BC16D674EC80000 PUSH1 0x4 SSTORE PUSH1 0x2 PUSH1 0x5 SSTORE CALLVALUE DUP1 ISZERO PUSH3 0x2E JUMPI PUSH1 0x0 DUP1 REVERT JUMPDEST POP PUSH1 0x40 MLOAD PUSH3 0x127B CODESIZE SUB DUP1 PUSH3 0x127B DUP4 CODECOPY DUP2 DUP2 ADD PUSH1 0x40 MSTORE DUP2 ADD SWAP1 PUSH3 0x54 SWAP2 SWAP1 PUSH3 0x19C JUMP JUMPDEST DUP2 PUSH1 0x0 DUP1 PUSH2 0x100 EXP DUP2 SLOAD DUP2 PUSH20 0xFFFFFFFFFFFFFFFFFFFFFFFFFFFFFFFFFFFFFFFF MUL NOT AND SWAP1 DUP4 PUSH20 0xFFFFFFFFFFFFFFFFFFFFFFFFFFFFFFFFFFFFFFFF AND MUL OR SWAP1 SSTORE POP DUP1 PUSH1 0x1 PUSH1 0x0 PUSH2 0x100 EXP DUP2 SLOAD DUP2 PUSH20 0xFFFFFFFFFFFFFFFFFFFFFFFFFFFFFFFFFFFFFFFF MUL NOT AND SWAP1 DUP4 PUSH20 0xFFFFFFFFFFFFFFFFFFFFFFFFFFFFFFFFFFFFFFFF AND MUL OR SWAP1 SSTORE POP CALLER PUSH1 0x2 PUSH1 0x0 PUSH2 0x100 EXP DUP2 SLOAD DUP2 PUSH20 0xFFFFFFFFFFFFFFFFFFFFFFFFFFFFFFFFFFFFFFFF MUL NOT AND SWAP1 DUP4 PUSH20 0xFFFFFFFFFFFFFFFFFFFFFFFFFFFFFFFFFFFFFFFF AND MUL OR SWAP1 SSTORE POP POP POP PUSH3 0x1E3 JUMP JUMPDEST PUSH1 0x0 DUP1 REVERT JUMPDEST PUSH1 0x0 PUSH20 0xFFFFFFFFFFFFFFFFFFFFFFFFFFFFFFFFFFFFFFFF DUP3 AND SWAP1 POP SWAP2 SWAP1 POP JUMP JUMPDEST PUSH1 0x0 PUSH3 0x150 DUP3 PUSH3 0x123 JUMP JUMPDEST SWAP1 POP SWAP2 SWAP1 POP JUMP JUMPDEST PUSH1 0x0 PUSH3 0x164 DUP3 PUSH3 0x143 JUMP JUMPDEST SWAP1 POP SWAP2 SWAP1 POP JUMP JUMPDEST PUSH3 0x176 DUP2 PUSH3 0x157 JUMP JUMPDEST DUP2 EQ PUSH3 0x182 JUMPI PUSH1 0x0 DUP1 REVERT JUMPDEST POP JUMP JUMPDEST PUSH1 0x0 DUP2 MLOAD SWAP1 POP PUSH3 0x196 DUP2 PUSH3 0x16B JUMP JUMPDEST SWAP3 SWAP2 POP POP JUMP JUMPDEST PUSH1 0x0 DUP1 PUSH1 0x40 DUP4 DUP6 SUB SLT ISZERO PUSH3 0x1B6 JUMPI PUSH3 0x1B5 PUSH3 0x11E JUMP JUMPDEST JUMPDEST PUSH1 0x0 PUSH3 0x1C6 DUP6 DUP3 DUP7 ADD PUSH3 0x185 JUMP JUMPDEST SWAP3 POP POP PUSH1 0x20 PUSH3 0x1D9 DUP6 DUP3 DUP7 ADD PUSH3 0x185 JUMP JUMPDEST SWAP2 POP POP SWAP3 POP SWAP3 SWAP1 POP JUMP JUMPDEST PUSH2 0x1088 DUP1 PUSH3 0x1F3 PUSH1 0x0 CODECOPY PUSH1 0x0 RETURN INVALID PUSH1 0x80 PUSH1 0x40 MSTORE CALLVALUE DUP1 ISZERO PUSH2 0x10 JUMPI PUSH1 0x0 DUP1 REVERT JUMPDEST POP PUSH1 0x4 CALLDATASIZE LT PUSH2 0xB4 JUMPI PUSH1 0x0 CALLDATALOAD PUSH1 0xE0 SHR DUP1 PUSH4 0x978039D1 GT PUSH2 0x71 JUMPI DUP1 PUSH4 0x978039D1 EQ PUSH2 0x153 JUMPI DUP1 PUSH4 0xC9A7029D EQ PUSH2 0x171 JUMPI DUP1 PUSH4 0xD8FD0F4D EQ PUSH2 0x18F JUMPI DUP1 PUSH4 0xEF88D7F0 EQ PUSH2 0x199 JUMPI DUP1 PUSH4 0xF4DA7FE1 EQ PUSH2 0x1B5 JUMPI DUP1 PUSH4 0xFE2371CB EQ PUSH2 0x1D3 JUMPI PUSH2 0xB4 JUMP JUMPDEST DUP1 PUSH4 0x6B091F9 EQ PUSH2 0xB9 JUMPI DUP1 PUSH4 0x26A3E4DA EQ PUSH2 0xD5 JUMPI DUP1 PUSH4 0x3D8660FD EQ PUSH2 0xF1 JUMPI DUP1 PUSH4 0x7A35EB66 EQ PUSH2 0xFB JUMPI DUP1 PUSH4 0x8DA5CB5B EQ PUSH2 0x117 JUMPI DUP1 PUSH4 0x924720BD EQ PUSH2 0x135 JUMPI JUMPDEST PUSH1 0x0 DUP1 REVERT JUMPDEST PUSH2 0xD3 PUSH1 0x4 DUP1 CALLDATASIZE SUB DUP2 ADD SWAP1 PUSH2 0xCE SWAP2 SWAP1 PUSH2 0xA57 JUMP JUMPDEST PUSH2 0x1F1 JUMP JUMPDEST STOP JUMPDEST PUSH2 0xEF PUSH1 0x4 DUP1 CALLDATASIZE SUB DUP2 ADD SWAP1 PUSH2 0xEA SWAP2 SWAP1 PUSH2 0xA97 JUMP JUMPDEST PUSH2 0x364 JUMP JUMPDEST STOP JUMPDEST PUSH2 0xF9 PUSH2 0x588 JUMP JUMPDEST STOP JUMPDEST PUSH2 0x115 PUSH1 0x4 DUP1 CALLDATASIZE SUB DUP2 ADD SWAP1 PUSH2 0x110 SWAP2 SWAP1 PUSH2 0xA97 JUMP JUMPDEST PUSH2 0x6BB JUMP JUMPDEST STOP JUMPDEST PUSH2 0x11F PUSH2 0x755 JUMP JUMPDEST PUSH1 0x40 MLOAD PUSH2 0x12C SWAP2 SWAP1 PUSH2 0xAD3 JUMP JUMPDEST PUSH1 0x40 MLOAD DUP1 SWAP2 SUB SWAP1 RETURN JUMPDEST PUSH2 0x13D PUSH2 0x77B JUMP JUMPDEST PUSH1 0x40 MLOAD PUSH2 0x14A SWAP2 SWAP1 PUSH2 0xAFD JUMP JUMPDEST PUSH1 0x40 MLOAD DUP1 SWAP2 SUB SWAP1 RETURN JUMPDEST PUSH2 0x15B PUSH2 0x781 JUMP JUMPDEST PUSH1 0x40 MLOAD PUSH2 0x168 SWAP2 SWAP1 PUSH2 0xAFD JUMP JUMPDEST PUSH1 0x40 MLOAD DUP1 SWAP2 SUB SWAP1 RETURN JUMPDEST PUSH2 0x179 PUSH2 0x787 JUMP JUMPDEST PUSH1 0x40 MLOAD PUSH2 0x186 SWAP2 SWAP1 PUSH2 0xAFD JUMP JUMPDEST PUSH1 0x40 MLOAD DUP1 SWAP2 SUB SWAP1 RETURN JUMPDEST PUSH2 0x197 PUSH2 0x78D JUMP JUMPDEST STOP JUMPDEST PUSH2 0x1B3 PUSH1 0x4 DUP1 CALLDATASIZE SUB DUP2 ADD SWAP1 PUSH2 0x1AE SWAP2 SWAP1 PUSH2 0xB18 JUMP JUMPDEST PUSH2 0x8C0 JUMP JUMPDEST STOP JUMPDEST PUSH2 0x1BD PUSH2 0x962 JUMP JUMPDEST PUSH1 0x40 MLOAD PUSH2 0x1CA SWAP2 SWAP1 PUSH2 0xBB7 JUMP JUMPDEST PUSH1 0x40 MLOAD DUP1 SWAP2 SUB SWAP1 RETURN JUMPDEST PUSH2 0x1DB PUSH2 0x986 JUMP JUMPDEST PUSH1 0x40 MLOAD PUSH2 0x1E8 SWAP2 SWAP1 PUSH2 0xBB7 JUMP JUMPDEST PUSH1 0x40 MLOAD DUP1 SWAP2 SUB SWAP1 RETURN JUMPDEST PUSH1 0x2 PUSH1 0x0 SWAP1 SLOAD SWAP1 PUSH2 0x100 EXP SWAP1 DIV PUSH20 0xFFFFFFFFFFFFFFFFFFFFFFFFFFFFFFFFFFFFFFFF AND PUSH20 0xFFFFFFFFFFFFFFFFFFFFFFFFFFFFFFFFFFFFFFFF AND CALLER PUSH20 0xFFFFFFFFFFFFFFFFFFFFFFFFFFFFFFFFFFFFFFFF AND EQ PUSH2 0x281 JUMPI PUSH1 0x40 MLOAD PUSH32 0x8C379A000000000000000000000000000000000000000000000000000000000 DUP2 MSTORE PUSH1 0x4 ADD PUSH2 0x278 SWAP1 PUSH2 0xC2F JUMP JUMPDEST PUSH1 0x40 MLOAD DUP1 SWAP2 SUB SWAP1 REVERT JUMPDEST DUP2 PUSH20 0xFFFFFFFFFFFFFFFFFFFFFFFFFFFFFFFFFFFFFFFF AND PUSH4 0xA9059CBB PUSH1 0x2 PUSH1 0x0 SWAP1 SLOAD SWAP1 PUSH2 0x100 EXP SWAP1 DIV PUSH20 0xFFFFFFFFFFFFFFFFFFFFFFFFFFFFFFFFFFFFFFFF AND DUP4 PUSH1 0x40 MLOAD DUP4 PUSH4 0xFFFFFFFF AND PUSH1 0xE0 SHL DUP2 MSTORE PUSH1 0x4 ADD PUSH2 0x2DE SWAP3 SWAP2 SWAP1 PUSH2 0xC4F JUMP JUMPDEST PUSH1 0x20 PUSH1 0x40 MLOAD DUP1 DUP4 SUB DUP2 PUSH1 0x0 DUP8 GAS CALL ISZERO DUP1 ISZERO PUSH2 0x2FD JUMPI RETURNDATASIZE PUSH1 0x0 DUP1 RETURNDATACOPY RETURNDATASIZE PUSH1 0x0 REVERT JUMPDEST POP POP POP POP PUSH1 0x40 MLOAD RETURNDATASIZE PUSH1 0x1F NOT PUSH1 0x1F DUP3 ADD AND DUP3 ADD DUP1 PUSH1 0x40 MSTORE POP DUP2 ADD SWAP1 PUSH2 0x321 SWAP2 SWAP1 PUSH2 0xCB0 JUMP JUMPDEST PUSH2 0x360 JUMPI PUSH1 0x40 MLOAD PUSH32 0x8C379A000000000000000000000000000000000000000000000000000000000 DUP2 MSTORE PUSH1 0x4 ADD PUSH2 0x357 SWAP1 PUSH2 0xD29 JUMP JUMPDEST PUSH1 0x40 MLOAD DUP1 SWAP2 SUB SWAP1 REVERT JUMPDEST POP POP JUMP JUMPDEST PUSH1 0x0 PUSH1 0x5 SLOAD DUP3 PUSH2 0x374 SWAP2 SWAP1 PUSH2 0xD78 JUMP JUMPDEST SWAP1 POP PUSH1 0x1 PUSH1 0x0 SWAP1 SLOAD SWAP1 PUSH2 0x100 EXP SWAP1 DIV PUSH20 0xFFFFFFFFFFFFFFFFFFFFFFFFFFFFFFFFFFFFFFFF AND PUSH20 0xFFFFFFFFFFFFFFFFFFFFFFFFFFFFFFFFFFFFFFFF AND PUSH4 0x23B872DD CALLER ADDRESS DUP6 PUSH1 0x40 MLOAD DUP5 PUSH4 0xFFFFFFFF AND PUSH1 0xE0 SHL DUP2 MSTORE PUSH1 0x4 ADD PUSH2 0x3D5 SWAP4 SWAP3 SWAP2 SWAP1 PUSH2 0xDBA JUMP JUMPDEST PUSH1 0x20 PUSH1 0x40 MLOAD DUP1 DUP4 SUB DUP2 PUSH1 0x0 DUP8 GAS CALL ISZERO DUP1 ISZERO PUSH2 0x3F4 JUMPI RETURNDATASIZE PUSH1 0x0 DUP1 RETURNDATACOPY RETURNDATASIZE PUSH1 0x0 REVERT JUMPDEST POP POP POP POP PUSH1 0x40 MLOAD RETURNDATASIZE PUSH1 0x1F NOT PUSH1 0x1F DUP3 ADD AND DUP3 ADD DUP1 PUSH1 0x40 MSTORE POP DUP2 ADD SWAP1 PUSH2 0x418 SWAP2 SWAP1 PUSH2 0xCB0 JUMP JUMPDEST PUSH2 0x457 JUMPI PUSH1 0x40 MLOAD PUSH32 0x8C379A000000000000000000000000000000000000000000000000000000000 DUP2 MSTORE PUSH1 0x4 ADD PUSH2 0x44E SWAP1 PUSH2 0xE3D JUMP JUMPDEST PUSH1 0x40 MLOAD DUP1 SWAP2 SUB SWAP1 REVERT JUMPDEST PUSH1 0x0 DUP1 SLOAD SWAP1 PUSH2 0x100 EXP SWAP1 DIV PUSH20 0xFFFFFFFFFFFFFFFFFFFFFFFFFFFFFFFFFFFFFFFF AND PUSH20 0xFFFFFFFFFFFFFFFFFFFFFFFFFFFFFFFFFFFFFFFF AND PUSH4 0xA9059CBB CALLER DUP4 PUSH1 0x40 MLOAD DUP4 PUSH4 0xFFFFFFFF AND PUSH1 0xE0 SHL DUP2 MSTORE PUSH1 0x4 ADD PUSH2 0x4B2 SWAP3 SWAP2 SWAP1 PUSH2 0xC4F JUMP JUMPDEST PUSH1 0x20 PUSH1 0x40 MLOAD DUP1 DUP4 SUB DUP2 PUSH1 0x0 DUP8 GAS CALL ISZERO DUP1 ISZERO PUSH2 0x4D1 JUMPI RETURNDATASIZE PUSH1 0x0 DUP1 RETURNDATACOPY RETURNDATASIZE PUSH1 0x0 REVERT JUMPDEST POP POP POP POP PUSH1 0x40 MLOAD RETURNDATASIZE PUSH1 0x1F NOT PUSH1 0x1F DUP3 ADD AND DUP3 ADD DUP1 PUSH1 0x40 MSTORE POP DUP2 ADD SWAP1 PUSH2 0x4F5 SWAP2 SWAP1 PUSH2 0xCB0 JUMP JUMPDEST PUSH2 0x534 JUMPI PUSH1 0x40 MLOAD PUSH32 0x8C379A000000000000000000000000000000000000000000000000000000000 DUP2 MSTORE PUSH1 0x4 ADD PUSH2 0x52B SWAP1 PUSH2 0xEA9 JUMP JUMPDEST PUSH1 0x40 MLOAD DUP1 SWAP2 SUB SWAP1 REVERT JUMPDEST CALLER PUSH20 0xFFFFFFFFFFFFFFFFFFFFFFFFFFFFFFFFFFFFFFFF AND PUSH32 0x77F92A1B6A1A11DE8CA49515AD4C1FAD45632DD3442167D74B90B304A3C7A758 DUP4 DUP4 PUSH1 0x40 MLOAD PUSH2 0x57C SWAP3 SWAP2 SWAP1 PUSH2 0xEC9 JUMP JUMPDEST PUSH1 0x40 MLOAD DUP1 SWAP2 SUB SWAP1 LOG2 POP POP JUMP JUMPDEST PUSH1 0x0 DUP1 SLOAD SWAP1 PUSH2 0x100 EXP SWAP1 DIV PUSH20 0xFFFFFFFFFFFFFFFFFFFFFFFFFFFFFFFFFFFFFFFF AND PUSH20 0xFFFFFFFFFFFFFFFFFFFFFFFFFFFFFFFFFFFFFFFF AND PUSH4 0x23B872DD CALLER ADDRESS PUSH1 0x4 SLOAD PUSH1 0x40 MLOAD DUP5 PUSH4 0xFFFFFFFF AND PUSH1 0xE0 SHL DUP2 MSTORE PUSH1 0x4 ADD PUSH2 0x5E7 SWAP4 SWAP3 SWAP2 SWAP1 PUSH2 0xDBA JUMP JUMPDEST PUSH1 0x20 PUSH1 0x40 MLOAD DUP1 DUP4 SUB DUP2 PUSH1 0x0 DUP8 GAS CALL ISZERO DUP1 ISZERO PUSH2 0x606 JUMPI RETURNDATASIZE PUSH1 0x0 DUP1 RETURNDATACOPY RETURNDATASIZE PUSH1 0x0 REVERT JUMPDEST POP POP POP POP PUSH1 0x40 MLOAD RETURNDATASIZE PUSH1 0x1F NOT PUSH1 0x1F DUP3 ADD AND DUP3 ADD DUP1 PUSH1 0x40 MSTORE POP DUP2 ADD SWAP1 PUSH2 0x62A SWAP2 SWAP1 PUSH2 0xCB0 JUMP JUMPDEST PUSH2 0x669 JUMPI PUSH1 0x40 MLOAD PUSH32 0x8C379A000000000000000000000000000000000000000000000000000000000 DUP2 MSTORE PUSH1 0x4 ADD PUSH2 0x660 SWAP1 PUSH2 0xF3E JUMP JUMPDEST PUSH1 0x40 MLOAD DUP1 SWAP2 SUB SWAP1 REVERT JUMPDEST CALLER PUSH20 0xFFFFFFFFFFFFFFFFFFFFFFFFFFFFFFFFFFFFFFFF AND PUSH32 0x7A5116C78A9E1AD902408EEE81D2BC878DA4DE341BABC5C94DA8BB189D924DAB PUSH1 0x4 SLOAD PUSH1 0x40 MLOAD PUSH2 0x6B1 SWAP2 SWAP1 PUSH2 0xFAA JUMP JUMPDEST PUSH1 0x40 MLOAD DUP1 SWAP2 SUB SWAP1 LOG2 JUMP JUMPDEST PUSH1 0x2 PUSH1 0x0 SWAP1 SLOAD SWAP1 PUSH2 0x100 EXP SWAP1 DIV PUSH20 0xFFFFFFFFFFFFFFFFFFFFFFFFFFFFFFFFFFFFFFFF AND PUSH20 0xFFFFFFFFFFFFFFFFFFFFFFFFFFFFFFFFFFFFFFFF AND CALLER PUSH20 0xFFFFFFFFFFFFFFFFFFFFFFFFFFFFFFFFFFFFFFFF AND EQ PUSH2 0x74B JUMPI PUSH1 0x40 MLOAD PUSH32 0x8C379A000000000000000000000000000000000000000000000000000000000 DUP2 MSTORE PUSH1 0x4 ADD PUSH2 0x742 SWAP1 PUSH2 0xC2F JUMP JUMPDEST PUSH1 0x40 MLOAD DUP1 SWAP2 SUB SWAP1 REVERT JUMPDEST DUP1 PUSH1 0x5 DUP2 SWAP1 SSTORE POP POP JUMP JUMPDEST PUSH1 0x2 PUSH1 0x0 SWAP1 SLOAD SWAP1 PUSH2 0x100 EXP SWAP1 DIV PUSH20 0xFFFFFFFFFFFFFFFFFFFFFFFFFFFFFFFFFFFFFFFF AND DUP2 JUMP JUMPDEST PUSH1 0x3 SLOAD DUP2 JUMP JUMPDEST PUSH1 0x5 SLOAD DUP2 JUMP JUMPDEST PUSH1 0x4 SLOAD DUP2 JUMP JUMPDEST PUSH1 0x0 DUP1 SLOAD SWAP1 PUSH2 0x100 EXP SWAP1 DIV PUSH20 0xFFFFFFFFFFFFFFFFFFFFFFFFFFFFFFFFFFFFFFFF AND PUSH20 0xFFFFFFFFFFFFFFFFFFFFFFFFFFFFFFFFFFFFFFFF AND PUSH4 0x23B872DD CALLER ADDRESS PUSH1 0x3 SLOAD PUSH1 0x40 MLOAD DUP5 PUSH4 0xFFFFFFFF AND PUSH1 0xE0 SHL DUP2 MSTORE PUSH1 0x4 ADD PUSH2 0x7EC SWAP4 SWAP3 SWAP2 SWAP1 PUSH2 0xDBA JUMP JUMPDEST PUSH1 0x20 PUSH1 0x40 MLOAD DUP1 DUP4 SUB DUP2 PUSH1 0x0 DUP8 GAS CALL ISZERO DUP1 ISZERO PUSH2 0x80B JUMPI RETURNDATASIZE PUSH1 0x0 DUP1 RETURNDATACOPY RETURNDATASIZE PUSH1 0x0 REVERT JUMPDEST POP POP POP POP PUSH1 0x40 MLOAD RETURNDATASIZE PUSH1 0x1F NOT PUSH1 0x1F DUP3 ADD AND DUP3 ADD DUP1 PUSH1 0x40 MSTORE POP DUP2 ADD SWAP1 PUSH2 0x82F SWAP2 SWAP1 PUSH2 0xCB0 JUMP JUMPDEST PUSH2 0x86E JUMPI PUSH1 0x40 MLOAD PUSH32 0x8C379A000000000000000000000000000000000000000000000000000000000 DUP2 MSTORE PUSH1 0x4 ADD PUSH2 0x865 SWAP1 PUSH2 0xF3E JUMP JUMPDEST PUSH1 0x40 MLOAD DUP1 SWAP2 SUB SWAP1 REVERT JUMPDEST CALLER PUSH20 0xFFFFFFFFFFFFFFFFFFFFFFFFFFFFFFFFFFFFFFFF AND PUSH32 0x7A5116C78A9E1AD902408EEE81D2BC878DA4DE341BABC5C94DA8BB189D924DAB PUSH1 0x3 SLOAD PUSH1 0x40 MLOAD PUSH2 0x8B6 SWAP2 SWAP1 PUSH2 0x1024 JUMP JUMPDEST PUSH1 0x40 MLOAD DUP1 SWAP2 SUB SWAP1 LOG2 JUMP JUMPDEST PUSH1 0x2 PUSH1 0x0 SWAP1 SLOAD SWAP1 PUSH2 0x100 EXP SWAP1 DIV PUSH20 0xFFFFFFFFFFFFFFFFFFFFFFFFFFFFFFFFFFFFFFFF AND PUSH20 0xFFFFFFFFFFFFFFFFFFFFFFFFFFFFFFFFFFFFFFFF AND CALLER PUSH20 0xFFFFFFFFFFFFFFFFFFFFFFFFFFFFFFFFFFFFFFFF AND EQ PUSH2 0x950 JUMPI PUSH1 0x40 MLOAD PUSH32 0x8C379A000000000000000000000000000000000000000000000000000000000 DUP2 MSTORE PUSH1 0x4 ADD PUSH2 0x947 SWAP1 PUSH2 0xC2F JUMP JUMPDEST PUSH1 0x40 MLOAD DUP1 SWAP2 SUB SWAP1 REVERT JUMPDEST DUP2 PUSH1 0x3 DUP2 SWAP1 SSTORE POP DUP1 PUSH1 0x4 DUP2 SWAP1 SSTORE POP POP POP JUMP JUMPDEST PUSH1 0x0 DUP1 SLOAD SWAP1 PUSH2 0x100 EXP SWAP1 DIV PUSH20 0xFFFFFFFFFFFFFFFFFFFFFFFFFFFFFFFFFFFFFFFF AND DUP2 JUMP JUMPDEST PUSH1 0x1 PUSH1 0x0 SWAP1 SLOAD SWAP1 PUSH2 0x100 EXP SWAP1 DIV PUSH20 0xFFFFFFFFFFFFFFFFFFFFFFFFFFFFFFFFFFFFFFFF AND DUP2 JUMP JUMPDEST PUSH1 0x0 DUP1 REVERT JUMPDEST PUSH1 0x0 PUSH20 0xFFFFFFFFFFFFFFFFFFFFFFFFFFFFFFFFFFFFFFFF DUP3 AND SWAP1 POP SWAP2 SWAP1 POP JUMP JUMPDEST PUSH1 0x0 PUSH2 0x9DC DUP3 PUSH2 0x9B1 JUMP JUMPDEST SWAP1 POP SWAP2 SWAP1 POP JUMP JUMPDEST PUSH1 0x0 PUSH2 0x9EE DUP3 PUSH2 0x9D1 JUMP JUMPDEST SWAP1 POP SWAP2 SWAP1 POP JUMP JUMPDEST PUSH2 0x9FE DUP2 PUSH2 0x9E3 JUMP JUMPDEST DUP2 EQ PUSH2 0xA09 JUMPI PUSH1 0x0 DUP1 REVERT JUMPDEST POP JUMP JUMPDEST PUSH1 0x0 DUP2 CALLDATALOAD SWAP1 POP PUSH2 0xA1B DUP2 PUSH2 0x9F5 JUMP JUMPDEST SWAP3 SWAP2 POP POP JUMP JUMPDEST PUSH1 0x0 DUP2 SWAP1 POP SWAP2 SWAP1 POP JUMP JUMPDEST PUSH2 0xA34 DUP2 PUSH2 0xA21 JUMP JUMPDEST DUP2 EQ PUSH2 0xA3F JUMPI PUSH1 0x0 DUP1 REVERT JUMPDEST POP JUMP JUMPDEST PUSH1 0x0 DUP2 CALLDATALOAD SWAP1 POP PUSH2 0xA51 DUP2 PUSH2 0xA2B JUMP JUMPDEST SWAP3 SWAP2 POP POP JUMP JUMPDEST PUSH1 0x0 DUP1 PUSH1 0x40 DUP4 DUP6 SUB SLT ISZERO PUSH2 0xA6E JUMPI PUSH2 0xA6D PUSH2 0x9AC JUMP JUMPDEST JUMPDEST PUSH1 0x0 PUSH2 0xA7C DUP6 DUP3 DUP7 ADD PUSH2 0xA0C JUMP JUMPDEST SWAP3 POP POP PUSH1 0x20 PUSH2 0xA8D DUP6 DUP3 DUP7 ADD PUSH2 0xA42 JUMP JUMPDEST SWAP2 POP POP SWAP3 POP SWAP3 SWAP1 POP JUMP JUMPDEST PUSH1 0x0 PUSH1 0x20 DUP3 DUP5 SUB SLT ISZERO PUSH2 0xAAD JUMPI PUSH2 0xAAC PUSH2 0x9AC JUMP JUMPDEST JUMPDEST PUSH1 0x0 PUSH2 0xABB DUP5 DUP3 DUP6 ADD PUSH2 0xA42 JUMP JUMPDEST SWAP2 POP POP SWAP3 SWAP2 POP POP JUMP JUMPDEST PUSH2 0xACD DUP2 PUSH2 0x9D1 JUMP JUMPDEST DUP3 MSTORE POP POP JUMP JUMPDEST PUSH1 0x0 PUSH1 0x20 DUP3 ADD SWAP1 POP PUSH2 0xAE8 PUSH1 0x0 DUP4 ADD DUP5 PUSH2 0xAC4 JUMP JUMPDEST SWAP3 SWAP2 POP POP JUMP JUMPDEST PUSH2 0xAF7 DUP2 PUSH2 0xA21 JUMP JUMPDEST DUP3 MSTORE POP POP JUMP JUMPDEST PUSH1 0x0 PUSH1 0x20 DUP3 ADD SWAP1 POP PUSH2 0xB12 PUSH1 0x0 DUP4 ADD DUP5 PUSH2 0xAEE JUMP JUMPDEST SWAP3 SWAP2 POP POP JUMP JUMPDEST PUSH1 0x0 DUP1 PUSH1 0x40 DUP4 DUP6 SUB SLT ISZERO PUSH2 0xB2F JUMPI PUSH2 0xB2E PUSH2 0x9AC JUMP JUMPDEST JUMPDEST PUSH1 0x0 PUSH2 0xB3D DUP6 DUP3 DUP7 ADD PUSH2 0xA42 JUMP JUMPDEST SWAP3 POP POP PUSH1 0x20 PUSH2 0xB4E DUP6 DUP3 DUP7 ADD PUSH2 0xA42 JUMP JUMPDEST SWAP2 POP POP SWAP3 POP SWAP3 SWAP1 POP JUMP JUMPDEST PUSH1 0x0 DUP2 SWAP1 POP SWAP2 SWAP1 POP JUMP JUMPDEST PUSH1 0x0 PUSH2 0xB7D PUSH2 0xB78 PUSH2 0xB73 DUP5 PUSH2 0x9B1 JUMP JUMPDEST PUSH2 0xB58 JUMP JUMPDEST PUSH2 0x9B1 JUMP JUMPDEST SWAP1 POP SWAP2 SWAP1 POP JUMP JUMPDEST PUSH1 0x0 PUSH2 0xB8F DUP3 PUSH2 0xB62 JUMP JUMPDEST SWAP1 POP SWAP2 SWAP1 POP JUMP JUMPDEST PUSH1 0x0 PUSH2 0xBA1 DUP3 PUSH2 0xB84 JUMP JUMPDEST SWAP1 POP SWAP2 SWAP1 POP JUMP JUMPDEST PUSH2 0xBB1 DUP2 PUSH2 0xB96 JUMP JUMPDEST DUP3 MSTORE POP POP JUMP JUMPDEST PUSH1 0x0 PUSH1 0x20 DUP3 ADD SWAP1 POP PUSH2 0xBCC PUSH1 0x0 DUP4 ADD DUP5 PUSH2 0xBA8 JUMP JUMPDEST SWAP3 SWAP2 POP POP JUMP JUMPDEST PUSH1 0x0 DUP3 DUP3 MSTORE PUSH1 0x20 DUP3 ADD SWAP1 POP SWAP3 SWAP2 POP POP JUMP JUMPDEST PUSH32 0x4E6F7420746865206F776E657200000000000000000000000000000000000000 PUSH1 0x0 DUP3 ADD MSTORE POP JUMP JUMPDEST PUSH1 0x0 PUSH2 0xC19 PUSH1 0xD DUP4 PUSH2 0xBD2 JUMP JUMPDEST SWAP2 POP PUSH2 0xC24 DUP3 PUSH2 0xBE3 JUMP JUMPDEST PUSH1 0x20 DUP3 ADD SWAP1 POP SWAP2 SWAP1 POP JUMP JUMPDEST PUSH1 0x0 PUSH1 0x20 DUP3 ADD SWAP1 POP DUP2 DUP2 SUB PUSH1 0x0 DUP4 ADD MSTORE PUSH2 0xC48 DUP2 PUSH2 0xC0C JUMP JUMPDEST SWAP1 POP SWAP2 SWAP1 POP JUMP JUMPDEST PUSH1 0x0 PUSH1 0x40 DUP3 ADD SWAP1 POP PUSH2 0xC64 PUSH1 0x0 DUP4 ADD DUP6 PUSH2 0xAC4 JUMP JUMPDEST PUSH2 0xC71 PUSH1 0x20 DUP4 ADD DUP5 PUSH2 0xAEE JUMP JUMPDEST SWAP4 SWAP3 POP POP POP JUMP JUMPDEST PUSH1 0x0 DUP2 ISZERO ISZERO SWAP1 POP SWAP2 SWAP1 POP JUMP JUMPDEST PUSH2 0xC8D DUP2 PUSH2 0xC78 JUMP JUMPDEST DUP2 EQ PUSH2 0xC98 JUMPI PUSH1 0x0 DUP1 REVERT JUMPDEST POP JUMP JUMPDEST PUSH1 0x0 DUP2 MLOAD SWAP1 POP PUSH2 0xCAA DUP2 PUSH2 0xC84 JUMP JUMPDEST SWAP3 SWAP2 POP POP JUMP JUMPDEST PUSH1 0x0 PUSH1 0x20 DUP3 DUP5 SUB SLT ISZERO PUSH2 0xCC6 JUMPI PUSH2 0xCC5 PUSH2 0x9AC JUMP JUMPDEST JUMPDEST PUSH1 0x0 PUSH2 0xCD4 DUP5 DUP3 DUP6 ADD PUSH2 0xC9B JUMP JUMPDEST SWAP2 POP POP SWAP3 SWAP2 POP POP JUMP JUMPDEST PUSH32 0x5769746864726177206661696C65640000000000000000000000000000000000 PUSH1 0x0 DUP3 ADD MSTORE POP JUMP JUMPDEST PUSH1 0x0 PUSH2 0xD13 PUSH1 0xF DUP4 PUSH2 0xBD2 JUMP JUMPDEST SWAP2 POP PUSH2 0xD1E DUP3 PUSH2 0xCDD JUMP JUMPDEST PUSH1 0x20 DUP3 ADD SWAP1 POP SWAP2 SWAP1 POP JUMP JUMPDEST PUSH1 0x0 PUSH1 0x20 DUP3 ADD SWAP1 POP DUP2 DUP2 SUB PUSH1 0x0 DUP4 ADD MSTORE PUSH2 0xD42 DUP2 PUSH2 0xD06 JUMP JUMPDEST SWAP1 POP SWAP2 SWAP1 POP JUMP JUMPDEST PUSH32 0x4E487B7100000000000000000000000000000000000000000000000000000000 PUSH1 0x0 MSTORE PUSH1 0x11 PUSH1 0x4 MSTORE PUSH1 0x24 PUSH1 0x0 REVERT JUMPDEST PUSH1 0x0 PUSH2 0xD83 DUP3 PUSH2 0xA21 JUMP JUMPDEST SWAP2 POP PUSH2 0xD8E DUP4 PUSH2 0xA21 JUMP JUMPDEST SWAP3 POP DUP3 DUP3 MUL PUSH2 0xD9C DUP2 PUSH2 0xA21 JUMP JUMPDEST SWAP2 POP DUP3 DUP3 DIV DUP5 EQ DUP4 ISZERO OR PUSH2 0xDB3 JUMPI PUSH2 0xDB2 PUSH2 0xD49 JUMP JUMPDEST JUMPDEST POP SWAP3 SWAP2 POP POP JUMP JUMPDEST PUSH1 0x0 PUSH1 0x60 DUP3 ADD SWAP1 POP PUSH2 0xDCF PUSH1 0x0 DUP4 ADD DUP7 PUSH2 0xAC4 JUMP JUMPDEST PUSH2 0xDDC PUSH1 0x20 DUP4 ADD DUP6 PUSH2 0xAC4 JUMP JUMPDEST PUSH2 0xDE9 PUSH1 0x40 DUP4 ADD DUP5 PUSH2 0xAEE JUMP JUMPDEST SWAP5 SWAP4 POP POP POP POP JUMP JUMPDEST PUSH32 0x4E61697261546F6B656E207472616E73666572206661696C6564000000000000 PUSH1 0x0 DUP3 ADD MSTORE POP JUMP JUMPDEST PUSH1 0x0 PUSH2 0xE27 PUSH1 0x1A DUP4 PUSH2 0xBD2 JUMP JUMPDEST SWAP2 POP PUSH2 0xE32 DUP3 PUSH2 0xDF1 JUMP JUMPDEST PUSH1 0x20 DUP3 ADD SWAP1 POP SWAP2 SWAP1 POP JUMP JUMPDEST PUSH1 0x0 PUSH1 0x20 DUP3 ADD SWAP1 POP DUP2 DUP2 SUB PUSH1 0x0 DUP4 ADD MSTORE PUSH2 0xE56 DUP2 PUSH2 0xE1A JUMP JUMPDEST SWAP1 POP SWAP2 SWAP1 POP JUMP JUMPDEST PUSH32 0x50697A7A61546F6B656E207472616E73666572206661696C6564000000000000 PUSH1 0x0 DUP3 ADD MSTORE POP JUMP JUMPDEST PUSH1 0x0 PUSH2 0xE93 PUSH1 0x1A DUP4 PUSH2 0xBD2 JUMP JUMPDEST SWAP2 POP PUSH2 0xE9E DUP3 PUSH2 0xE5D JUMP JUMPDEST PUSH1 0x20 DUP3 ADD SWAP1 POP SWAP2 SWAP1 POP JUMP JUMPDEST PUSH1 0x0 PUSH1 0x20 DUP3 ADD SWAP1 POP DUP2 DUP2 SUB PUSH1 0x0 DUP4 ADD MSTORE PUSH2 0xEC2 DUP2 PUSH2 0xE86 JUMP JUMPDEST SWAP1 POP SWAP2 SWAP1 POP JUMP JUMPDEST PUSH1 0x0 PUSH1 0x40 DUP3 ADD SWAP1 POP PUSH2 0xEDE PUSH1 0x0 DUP4 ADD DUP6 PUSH2 0xAEE JUMP JUMPDEST PUSH2 0xEEB PUSH1 0x20 DUP4 ADD DUP5 PUSH2 0xAEE JUMP JUMPDEST SWAP4 SWAP3 POP POP POP JUMP JUMPDEST PUSH32 0x5061796D656E74206661696C6564000000000000000000000000000000000000 PUSH1 0x0 DUP3 ADD MSTORE POP JUMP JUMPDEST PUSH1 0x0 PUSH2 0xF28 PUSH1 0xE DUP4 PUSH2 0xBD2 JUMP JUMPDEST SWAP2 POP PUSH2 0xF33 DUP3 PUSH2 0xEF2 JUMP JUMPDEST PUSH1 0x20 DUP3 ADD SWAP1 POP SWAP2 SWAP1 POP JUMP JUMPDEST PUSH1 0x0 PUSH1 0x20 DUP3 ADD SWAP1 POP DUP2 DUP2 SUB PUSH1 0x0 DUP4 ADD MSTORE PUSH2 0xF57 DUP2 PUSH2 0xF1B JUMP JUMPDEST SWAP1 POP SWAP2 SWAP1 POP JUMP JUMPDEST PUSH32 0x49636520437265616D0000000000000000000000000000000000000000000000 PUSH1 0x0 DUP3 ADD MSTORE POP JUMP JUMPDEST PUSH1 0x0 PUSH2 0xF94 PUSH1 0x9 DUP4 PUSH2 0xBD2 JUMP JUMPDEST SWAP2 POP PUSH2 0xF9F DUP3 PUSH2 0xF5E JUMP JUMPDEST PUSH1 0x20 DUP3 ADD SWAP1 POP SWAP2 SWAP1 POP JUMP JUMPDEST PUSH1 0x0 PUSH1 0x40 DUP3 ADD SWAP1 POP DUP2 DUP2 SUB PUSH1 0x0 DUP4 ADD MSTORE PUSH2 0xFC3 DUP2 PUSH2 0xF87 JUMP JUMPDEST SWAP1 POP PUSH2 0xFD2 PUSH1 0x20 DUP4 ADD DUP5 PUSH2 0xAEE JUMP JUMPDEST SWAP3 SWAP2 POP POP JUMP JUMPDEST PUSH32 0x50697A7A61000000000000000000000000000000000000000000000000000000 PUSH1 0x0 DUP3 ADD MSTORE POP JUMP JUMPDEST PUSH1 0x0 PUSH2 0x100E PUSH1 0x5 DUP4 PUSH2 0xBD2 JUMP JUMPDEST SWAP2 POP PUSH2 0x1019 DUP3 PUSH2 0xFD8 JUMP JUMPDEST PUSH1 0x20 DUP3 ADD SWAP1 POP SWAP2 SWAP1 POP JUMP JUMPDEST PUSH1 0x0 PUSH1 0x40 DUP3 ADD SWAP1 POP DUP2 DUP2 SUB PUSH1 0x0 DUP4 ADD MSTORE PUSH2 0x103D DUP2 PUSH2 0x1001 JUMP JUMPDEST SWAP1 POP PUSH2 0x104C PUSH1 0x20 DUP4 ADD DUP5 PUSH2 0xAEE JUMP JUMPDEST SWAP3 SWAP2 POP POP JUMP INVALID LOG2 PUSH5 0x6970667358 0x22 SLT KECCAK256 EXTCODEHASH BLOCKHASH 0xE6 0x27 SWAP2 0xB3 DUP11 CALLDATASIZE 0xE4 PREVRANDAO NOT MSTORE 0xB6 0x28 PUSH28 0x84B36BDCDA66EF786FC5BBBFEF0D19BA6C64736F6C63430008180033 "
        },
        "methodIdentifiers": {
          "buyIceCream()": "3d8660fd",
          "buyPizza()": "d8fd0f4d",
          "iceCreamPrice()": "c9a7029d",
          "nairaToPizzaRate()": "978039d1",
          "nairaToken()": "fe2371cb",
          "owner()": "8da5cb5b",
          "pizzaPrice()": "924720bd",
          "pizzaToken()": "f4da7fe1",
          "swapNairaForPizza(uint256)": "26a3e4da",
          "updatePrices(uint256,uint256)": "ef88d7f0",
          "updateSwapRate(uint256)": "7a35eb66",
          "withdrawTokens(address,uint256)": "06b091f9"
        }
      }
    }
  }
}