{
  "_format": "hh-sol-artifact-1",
  "contractName": "CrowdFunding",
  "sourceName": "contracts/CrowdFunding.sol",
  "abi": [
    {
      "inputs": [],
      "stateMutability": "nonpayable",
      "type": "constructor"
    },
    {
      "anonymous": false,
      "inputs": [
        {
          "indexed": false,
          "internalType": "uint256",
          "name": "id",
          "type": "uint256"
        },
        {
          "indexed": false,
          "internalType": "address",
          "name": "owner",
          "type": "address"
        },
        {
          "indexed": false,
          "internalType": "address",
          "name": "funder",
          "type": "address"
        },
        {
          "indexed": false,
          "internalType": "uint256",
          "name": "amount",
          "type": "uint256"
        }
      ],
      "name": "CampaignCreated",
      "type": "event"
    },
    {
      "anonymous": false,
      "inputs": [
        {
          "indexed": false,
          "internalType": "uint256",
          "name": "id",
          "type": "uint256"
        },
        {
          "indexed": false,
          "internalType": "string",
          "name": "name",
          "type": "string"
        },
        {
          "indexed": false,
          "internalType": "uint256",
          "name": "balance",
          "type": "uint256"
        }
      ],
      "name": "DonationRecieved",
      "type": "event"
    },
    {
      "anonymous": false,
      "inputs": [
        {
          "indexed": false,
          "internalType": "uint256",
          "name": "id",
          "type": "uint256"
        },
        {
          "indexed": false,
          "internalType": "string",
          "name": "name",
          "type": "string"
        },
        {
          "indexed": false,
          "internalType": "string",
          "name": "desc",
          "type": "string"
        },
        {
          "indexed": false,
          "internalType": "address",
          "name": "owner",
          "type": "address"
        },
        {
          "indexed": false,
          "internalType": "uint256",
          "name": "dateLine",
          "type": "uint256"
        },
        {
          "indexed": false,
          "internalType": "bool",
          "name": "exists",
          "type": "bool"
        },
        {
          "indexed": false,
          "internalType": "uint256",
          "name": "balance",
          "type": "uint256"
        },
        {
          "indexed": false,
          "internalType": "uint256",
          "name": "goal",
          "type": "uint256"
        }
      ],
      "name": "ProjectCreated",
      "type": "event"
    },
    {
      "inputs": [],
      "name": "balanceOfProjects",
      "outputs": [
        {
          "internalType": "uint256",
          "name": "",
          "type": "uint256"
        }
      ],
      "stateMutability": "view",
      "type": "function"
    },
    {
      "inputs": [
        {
          "internalType": "uint256",
          "name": "_id",
          "type": "uint256"
        }
      ],
      "name": "closeProject",
      "outputs": [],
      "stateMutability": "nonpayable",
      "type": "function"
    },
    {
      "inputs": [
        {
          "internalType": "uint256",
          "name": "",
          "type": "uint256"
        },
        {
          "internalType": "address",
          "name": "",
          "type": "address"
        }
      ],
      "name": "contributions",
      "outputs": [
        {
          "internalType": "uint256",
          "name": "",
          "type": "uint256"
        }
      ],
      "stateMutability": "view",
      "type": "function"
    },
    {
      "inputs": [
        {
          "internalType": "string",
          "name": "_name",
          "type": "string"
        },
        {
          "internalType": "string",
          "name": "_desc",
          "type": "string"
        },
        {
          "internalType": "uint256",
          "name": "_endDate",
          "type": "uint256"
        },
        {
          "internalType": "uint256",
          "name": "_target",
          "type": "uint256"
        }
      ],
      "name": "createCampaign",
      "outputs": [],
      "stateMutability": "nonpayable",
      "type": "function"
    },
    {
      "inputs": [
        {
          "internalType": "uint256",
          "name": "_id",
          "type": "uint256"
        }
      ],
      "name": "fundProject",
      "outputs": [],
      "stateMutability": "payable",
      "type": "function"
    },
    {
      "inputs": [
        {
          "internalType": "uint256",
          "name": "project_id",
          "type": "uint256"
        }
      ],
      "name": "getContibutionsLength",
      "outputs": [
        {
          "internalType": "uint256",
          "name": "length",
          "type": "uint256"
        }
      ],
      "stateMutability": "view",
      "type": "function"
    },
    {
      "inputs": [
        {
          "internalType": "uint256",
          "name": "project_id",
          "type": "uint256"
        },
        {
          "internalType": "uint256",
          "name": "position",
          "type": "uint256"
        }
      ],
      "name": "getContributor",
      "outputs": [
        {
          "internalType": "address",
          "name": "",
          "type": "address"
        }
      ],
      "stateMutability": "view",
      "type": "function"
    },
    {
      "inputs": [],
      "name": "name",
      "outputs": [
        {
          "internalType": "string",
          "name": "",
          "type": "string"
        }
      ],
      "stateMutability": "view",
      "type": "function"
    },
    {
      "inputs": [],
      "name": "projectCount",
      "outputs": [
        {
          "internalType": "uint256",
          "name": "",
          "type": "uint256"
        }
      ],
      "stateMutability": "view",
      "type": "function"
    },
    {
      "inputs": [
        {
          "internalType": "uint256",
          "name": "",
          "type": "uint256"
        }
      ],
      "name": "projects",
      "outputs": [
        {
          "internalType": "uint256",
          "name": "id",
          "type": "uint256"
        },
        {
          "internalType": "string",
          "name": "name",
          "type": "string"
        },
        {
          "internalType": "string",
          "name": "desc",
          "type": "string"
        },
        {
          "internalType": "address",
          "name": "owner",
          "type": "address"
        },
        {
          "internalType": "uint256",
          "name": "dateLine",
          "type": "uint256"
        },
        {
          "internalType": "bool",
          "name": "exists",
          "type": "bool"
        },
        {
          "internalType": "uint256",
          "name": "balance",
          "type": "uint256"
        },
        {
          "internalType": "uint256",
          "name": "goal",
          "type": "uint256"
        }
      ],
      "stateMutability": "view",
      "type": "function"
    }
  ],
  "bytecode": "0x608060405260006001553480156200001657600080fd5b506040518060400160405280601981526020017f50726f6a65637420666f722063726f77642066756e64696e6700000000000000815250600090816200005d9190620002de565b50620003c5565b600081519050919050565b7f4e487b7100000000000000000000000000000000000000000000000000000000600052604160045260246000fd5b7f4e487b7100000000000000000000000000000000000000000000000000000000600052602260045260246000fd5b60006002820490506001821680620000e657607f821691505b602082108103620000fc57620000fb6200009e565b5b50919050565b60008190508160005260206000209050919050565b60006020601f8301049050919050565b600082821b905092915050565b600060088302620001667fffffffffffffffffffffffffffffffffffffffffffffffffffffffffffffffff8262000127565b62000172868362000127565b95508019841693508086168417925050509392505050565b6000819050919050565b6000819050919050565b6000620001bf620001b9620001b3846200018a565b62000194565b6200018a565b9050919050565b6000819050919050565b620001db836200019e565b620001f3620001ea82620001c6565b84845462000134565b825550505050565b600090565b6200020a620001fb565b62000217818484620001d0565b505050565b5b818110156200023f576200023360008262000200565b6001810190506200021d565b5050565b601f8211156200028e57620002588162000102565b620002638462000117565b8101602085101562000273578190505b6200028b620002828562000117565b8301826200021c565b50505b505050565b600082821c905092915050565b6000620002b36000198460080262000293565b1980831691505092915050565b6000620002ce8383620002a0565b9150826002028217905092915050565b620002e98262000064565b67ffffffffffffffff8111156200030557620003046200006f565b5b620003118254620000cd565b6200031e82828562000243565b600060209050601f83116001811462000356576000841562000341578287015190505b6200034d8582620002c0565b865550620003bd565b601f198416620003668662000102565b60005b82811015620003905784890151825560018201915060208501945060208101905062000369565b86831015620003b05784890151620003ac601f891682620002a0565b8355505b6001600288020188555050505b505050505050565b611e9780620003d56000396000f3fe6080604052600436106100915760003560e01c806344a982e71161005957806344a982e7146101aa5780636c563abe146101e757806393dc12e614610203578063a318f2691461022c578063d98125811461025557610091565b806306fdde0314610096578063107046bd146100c15780631e32880c1461010557806336fbad26146101425780633d891f591461016d575b600080fd5b3480156100a257600080fd5b506100ab610280565b6040516100b89190611343565b60405180910390f35b3480156100cd57600080fd5b506100e860048036038101906100e391906113af565b61030e565b6040516100fc989796959493929190611447565b60405180910390f35b34801561011157600080fd5b5061012c600480360381019061012791906113af565b610493565b60405161013991906114d3565b60405180910390f35b34801561014e57600080fd5b50610157610523565b60405161016491906114d3565b60405180910390f35b34801561017957600080fd5b50610194600480360381019061018f919061151a565b610529565b6040516101a191906114d3565b60405180910390f35b3480156101b657600080fd5b506101d160048036038101906101cc919061155a565b61054e565b6040516101de919061159a565b60405180910390f35b61020160048036038101906101fc91906113af565b6105ef565b005b34801561020f57600080fd5b5061022a600480360381019061022591906113af565b610b1b565b005b34801561023857600080fd5b50610253600480360381019061024e91906116ea565b610f95565b005b34801561026157600080fd5b5061026a61114d565b60405161027791906114d3565b60405180910390f35b6000805461028d906117b8565b80601f01602080910402602001604051908101604052809291908181526020018280546102b9906117b8565b80156103065780601f106102db57610100808354040283529160200191610306565b820191906000526020600020905b8154815290600101906020018083116102e957829003601f168201915b505050505081565b6002602052806000526040600020600091509050806000015490806001018054610337906117b8565b80601f0160208091040260200160405190810160405280929190818152602001828054610363906117b8565b80156103b05780601f10610385576101008083540402835291602001916103b0565b820191906000526020600020905b81548152906001019060200180831161039357829003601f168201915b5050505050908060020180546103c5906117b8565b80601f01602080910402602001604051908101604052809291908181526020018280546103f1906117b8565b801561043e5780601f106104135761010080835404028352916020019161043e565b820191906000526020600020905b81548152906001019060200180831161042157829003601f168201915b5050505050908060030160009054906101000a900473ffffffffffffffffffffffffffffffffffffffff16908060040154908060050160009054906101000a900460ff16908060060154908060070154905088565b600081600115156002600083815260200190815260200160002060050160009054906101000a900460ff16151514610500576040517f08c379a00000000000000000000000000000000000000000000000000000000081526004016104f790611835565b60405180910390fd5b61051b60046000858152602001908152602001600020611155565b915050919050565b60015481565b6003602052816000526040600020602052806000526040600020600091509150505481565b600082600115156002600083815260200190815260200160002060050160009054906101000a900460ff161515146105bb576040517f08c379a00000000000000000000000000000000000000000000000000000000081526004016105b290611835565b60405180910390fd5b60006105e2846004600088815260200190815260200160002061116a90919063ffffffff16565b9050809250505092915050565b80600115156002600083815260200190815260200160002060050160009054906101000a900460ff1615151461065a576040517f08c379a000000000000000000000000000000000000000000000000000000000815260040161065190611835565b60405180910390fd5b6000600260008481526020019081526020016000206040518061010001604052908160008201548152602001600182018054610695906117b8565b80601f01602080910402602001604051908101604052809291908181526020018280546106c1906117b8565b801561070e5780601f106106e35761010080835404028352916020019161070e565b820191906000526020600020905b8154815290600101906020018083116106f157829003601f168201915b50505050508152602001600282018054610727906117b8565b80601f0160208091040260200160405190810160405280929190818152602001828054610753906117b8565b80156107a05780601f10610775576101008083540402835291602001916107a0565b820191906000526020600020905b81548152906001019060200180831161078357829003601f168201915b505050505081526020016003820160009054906101000a900473ffffffffffffffffffffffffffffffffffffffff1673ffffffffffffffffffffffffffffffffffffffff1673ffffffffffffffffffffffffffffffffffffffff168152602001600482015481526020016005820160009054906101000a900460ff161515151581526020016006820154815260200160078201548152505090506000816060015190506000826000015111801561085d5750600154826000015111155b61086657600080fd5b816080015142106108ac576040517f08c379a00000000000000000000000000000000000000000000000000000000081526004016108a3906118a1565b60405180910390fd5b3373ffffffffffffffffffffffffffffffffffffffff168173ffffffffffffffffffffffffffffffffffffffff160361091a576040517f08c379a000000000000000000000000000000000000000000000000000000000815260040161091190611933565b60405180910390fd5b6000341161092757600080fd5b348260c0018181516109399190611982565b9150818152505081600260008681526020019081526020016000206000820151816000015560208201518160010190816109739190611b62565b5060408201518160020190816109899190611b62565b5060608201518160030160006101000a81548173ffffffffffffffffffffffffffffffffffffffff021916908373ffffffffffffffffffffffffffffffffffffffff1602179055506080820151816004015560a08201518160050160006101000a81548160ff02191690831515021790555060c0820151816006015560e08201518160070155905050346003600086815260200190815260200160002060003373ffffffffffffffffffffffffffffffffffffffff1673ffffffffffffffffffffffffffffffffffffffff1681526020019081526020016000206000828254610a729190611982565b9250508190555060011515610aa2336004600088815260200190815260200160002061118490919063ffffffff16565b151514610ad057610ace33600460008781526020019081526020016000206111b490919063ffffffff16565b505b7f57d8cc51cef40f8c9c48aef055b6159e7279eb7281514602c8fe98d49bb15aab826000015183606001513334604051610b0d9493929190611c34565b60405180910390a150505050565b806002600082815260200190815260200160002060030160009054906101000a900473ffffffffffffffffffffffffffffffffffffffff1673ffffffffffffffffffffffffffffffffffffffff163373ffffffffffffffffffffffffffffffffffffffff1614610bc0576040517f08c379a0000000000000000000000000000000000000000000000000000000008152600401610bb790611cc5565b60405180910390fd5b81600115156002600083815260200190815260200160002060050160009054906101000a900460ff16151514610c2b576040517f08c379a0000000000000000000000000000000000000000000000000000000008152600401610c2290611835565b60405180910390fd5b6000600260008581526020019081526020016000206040518061010001604052908160008201548152602001600182018054610c66906117b8565b80601f0160208091040260200160405190810160405280929190818152602001828054610c92906117b8565b8015610cdf5780601f10610cb457610100808354040283529160200191610cdf565b820191906000526020600020905b815481529060010190602001808311610cc257829003601f168201915b50505050508152602001600282018054610cf8906117b8565b80601f0160208091040260200160405190810160405280929190818152602001828054610d24906117b8565b8015610d715780601f10610d4657610100808354040283529160200191610d71565b820191906000526020600020905b815481529060010190602001808311610d5457829003601f168201915b505050505081526020016003820160009054906101000a900473ffffffffffffffffffffffffffffffffffffffff1673ffffffffffffffffffffffffffffffffffffffff1673ffffffffffffffffffffffffffffffffffffffff168152602001600482015481526020016005820160009054906101000a900460ff1615151515815260200160068201548152602001600782015481525050905060008160a0019015159081151581525050806060015173ffffffffffffffffffffffffffffffffffffffff166108fc8260c001519081150290604051600060405180830381858888f19350505050158015610e6a573d6000803e3d6000fd5b5060008160c00181815250508060026000868152602001908152602001600020600082015181600001556020820151816001019081610ea99190611b62565b506040820151816002019081610ebf9190611b62565b5060608201518160030160006101000a81548173ffffffffffffffffffffffffffffffffffffffff021916908373ffffffffffffffffffffffffffffffffffffffff1602179055506080820151816004015560a08201518160050160006101000a81548160ff02191690831515021790555060c0820151816006015560e082015181600701559050507fa7920b467f182ce742d5df97059ccac583ce52cac6032c90d2dd653eed5a43ff816000015182602001518360c00151604051610f8793929190611ce5565b60405180910390a150505050565b6000845111610fa357600080fd5b60008111610fb057600080fd5b60008211610fbd57600080fd5b60016000815480929190610fd090611d23565b919050555060405180610100016040528060015481526020018581526020018481526020013373ffffffffffffffffffffffffffffffffffffffff168152602001838152602001600115158152602001600081526020018281525060026000600154815260200190815260200160002060008201518160000155602082015181600101908161105f9190611b62565b5060408201518160020190816110759190611b62565b5060608201518160030160006101000a81548173ffffffffffffffffffffffffffffffffffffffff021916908373ffffffffffffffffffffffffffffffffffffffff1602179055506080820151816004015560a08201518160050160006101000a81548160ff02191690831515021790555060c0820151816006015560e082015181600701559050507f318ae2105e4ed352c2e4ff310936d968690d612618b61006796a8a7709a1b00860015485853386600160008860405161113f989796959493929190611da6565b60405180910390a150505050565b600047905090565b6000611163826000016111e4565b9050919050565b600061117983600001836111f5565b60001c905092915050565b60006111ac836000018373ffffffffffffffffffffffffffffffffffffffff1660001b611220565b905092915050565b60006111dc836000018373ffffffffffffffffffffffffffffffffffffffff1660001b611243565b905092915050565b600081600001805490509050919050565b600082600001828154811061120d5761120c611e32565b5b9060005260206000200154905092915050565b600080836001016000848152602001908152602001600020541415905092915050565b600061124f8383611220565b6112a85782600001829080600181540180825580915050600190039060005260206000200160009091909190915055826000018054905083600101600084815260200190815260200160002081905550600190506112ad565b600090505b92915050565b600081519050919050565b600082825260208201905092915050565b60005b838110156112ed5780820151818401526020810190506112d2565b60008484015250505050565b6000601f19601f8301169050919050565b6000611315826112b3565b61131f81856112be565b935061132f8185602086016112cf565b611338816112f9565b840191505092915050565b6000602082019050818103600083015261135d818461130a565b905092915050565b6000604051905090565b600080fd5b600080fd5b6000819050919050565b61138c81611379565b811461139757600080fd5b50565b6000813590506113a981611383565b92915050565b6000602082840312156113c5576113c461136f565b5b60006113d38482850161139a565b91505092915050565b6113e581611379565b82525050565b600073ffffffffffffffffffffffffffffffffffffffff82169050919050565b6000611416826113eb565b9050919050565b6114268161140b565b82525050565b60008115159050919050565b6114418161142c565b82525050565b60006101008201905061145d600083018b6113dc565b818103602083015261146f818a61130a565b90508181036040830152611483818961130a565b9050611492606083018861141d565b61149f60808301876113dc565b6114ac60a0830186611438565b6114b960c08301856113dc565b6114c660e08301846113dc565b9998505050505050505050565b60006020820190506114e860008301846113dc565b92915050565b6114f78161140b565b811461150257600080fd5b50565b600081359050611514816114ee565b92915050565b600080604083850312156115315761153061136f565b5b600061153f8582860161139a565b925050602061155085828601611505565b9150509250929050565b600080604083850312156115715761157061136f565b5b600061157f8582860161139a565b92505060206115908582860161139a565b9150509250929050565b60006020820190506115af600083018461141d565b92915050565b600080fd5b600080fd5b7f4e487b7100000000000000000000000000000000000000000000000000000000600052604160045260246000fd5b6115f7826112f9565b810181811067ffffffffffffffff82111715611616576116156115bf565b5b80604052505050565b6000611629611365565b905061163582826115ee565b919050565b600067ffffffffffffffff821115611655576116546115bf565b5b61165e826112f9565b9050602081019050919050565b82818337600083830152505050565b600061168d6116888461163a565b61161f565b9050828152602081018484840111156116a9576116a86115ba565b5b6116b484828561166b565b509392505050565b600082601f8301126116d1576116d06115b5565b5b81356116e184826020860161167a565b91505092915050565b600080600080608085870312156117045761170361136f565b5b600085013567ffffffffffffffff81111561172257611721611374565b5b61172e878288016116bc565b945050602085013567ffffffffffffffff81111561174f5761174e611374565b5b61175b878288016116bc565b935050604061176c8782880161139a565b925050606061177d8782880161139a565b91505092959194509250565b7f4e487b7100000000000000000000000000000000000000000000000000000000600052602260045260246000fd5b600060028204905060018216806117d057607f821691505b6020821081036117e3576117e2611789565b5b50919050565b7f50726f6a656374204e6576657220646579202865786973742900000000000000600082015250565b600061181f6019836112be565b915061182a826117e9565b602082019050919050565b6000602082019050818103600083015261184e81611812565b9050919050565b7f50726f6a65637420646f6e65202869732920636c6f736564206f6f6f6f2e0000600082015250565b600061188b601e836112be565b915061189682611855565b602082019050919050565b600060208201905081810360008301526118ba8161187e565b9050919050565b7f4f776e65722063616e27742066756e64207468652070726f6a6563742063726560008201527f61746564206279207468656d73656c7665732e00000000000000000000000000602082015250565b600061191d6033836112be565b9150611928826118c1565b604082019050919050565b6000602082019050818103600083015261194c81611910565b9050919050565b7f4e487b7100000000000000000000000000000000000000000000000000000000600052601160045260246000fd5b600061198d82611379565b915061199883611379565b92508282019050808211156119b0576119af611953565b5b92915050565b60008190508160005260206000209050919050565b60006020601f8301049050919050565b600082821b905092915050565b600060088302611a187fffffffffffffffffffffffffffffffffffffffffffffffffffffffffffffffff826119db565b611a2286836119db565b95508019841693508086168417925050509392505050565b6000819050919050565b6000611a5f611a5a611a5584611379565b611a3a565b611379565b9050919050565b6000819050919050565b611a7983611a44565b611a8d611a8582611a66565b8484546119e8565b825550505050565b600090565b611aa2611a95565b611aad818484611a70565b505050565b5b81811015611ad157611ac6600082611a9a565b600181019050611ab3565b5050565b601f821115611b1657611ae7816119b6565b611af0846119cb565b81016020851015611aff578190505b611b13611b0b856119cb565b830182611ab2565b50505b505050565b600082821c905092915050565b6000611b3960001984600802611b1b565b1980831691505092915050565b6000611b528383611b28565b9150826002028217905092915050565b611b6b826112b3565b67ffffffffffffffff811115611b8457611b836115bf565b5b611b8e82546117b8565b611b99828285611ad5565b600060209050601f831160018114611bcc5760008415611bba578287015190505b611bc48582611b46565b865550611c2c565b601f198416611bda866119b6565b60005b82811015611c0257848901518255600182019150602085019450602081019050611bdd565b86831015611c1f5784890151611c1b601f891682611b28565b8355505b6001600288020188555050505b505050505050565b6000608082019050611c4960008301876113dc565b611c56602083018661141d565b611c63604083018561141d565b611c7060608301846113dc565b95945050505050565b7f4e61204f6e6c79204f776e65722066697420636c6f73652050726f6a65637400600082015250565b6000611caf601f836112be565b9150611cba82611c79565b602082019050919050565b60006020820190508181036000830152611cde81611ca2565b9050919050565b6000606082019050611cfa60008301866113dc565b8181036020830152611d0c818561130a565b9050611d1b60408301846113dc565b949350505050565b6000611d2e82611379565b91507fffffffffffffffffffffffffffffffffffffffffffffffffffffffffffffffff8203611d6057611d5f611953565b5b600182019050919050565b6000819050919050565b6000611d90611d8b611d8684611d6b565b611a3a565b611379565b9050919050565b611da081611d75565b82525050565b600061010082019050611dbc600083018b6113dc565b8181036020830152611dce818a61130a565b90508181036040830152611de2818961130a565b9050611df1606083018861141d565b611dfe60808301876113dc565b611e0b60a0830186611438565b611e1860c0830185611d97565b611e2560e08301846113dc565b9998505050505050505050565b7f4e487b7100000000000000000000000000000000000000000000000000000000600052603260045260246000fdfea264697066735822122071b8132a2a80c8d2b15b82eacf2717fc314d2fea1af5fa1f03583fc581060e5d64736f6c63430008180033",
  "linkReferences": {},
  "deployedLinkReferences": {}
}