{
  "_format": "hh-sol-artifact-1",
  "contractName": "PizzaIceStore",
  "sourceName": "contracts/PizzaAndIceStore.sol",
  "abi": [
    {
      "inputs": [
        {
          "internalType": "contract IERC20",
          "name": "_pizzaToken",
          "type": "address"
        },
        {
          "internalType": "contract IERC20",
          "name": "_nairaToken",
          "type": "address"
        }
      ],
      "stateMutability": "nonpayable",
      "type": "constructor"
    },
    {
      "anonymous": false,
      "inputs": [
        {
          "indexed": true,
          "internalType": "address",
          "name": "buyer",
          "type": "address"
        },
        {
          "indexed": false,
          "internalType": "string",
          "name": "item",
          "type": "string"
        },
        {
          "indexed": false,
          "internalType": "uint256",
          "name": "amount",
          "type": "uint256"
        }
      ],
      "name": "Purchase",
      "type": "event"
    },
    {
      "anonymous": false,
      "inputs": [
        {
          "indexed": true,
          "internalType": "address",
          "name": "swapper",
          "type": "address"
        },
        {
          "indexed": false,
          "internalType": "uint256",
          "name": "nairaAmount",
          "type": "uint256"
        },
        {
          "indexed": false,
          "internalType": "uint256",
          "name": "pizzaTokenAmount",
          "type": "uint256"
        }
      ],
      "name": "Swap",
      "type": "event"
    },
    {
      "inputs": [],
      "name": "buyIceCream",
      "outputs": [],
      "stateMutability": "nonpayable",
      "type": "function"
    },
    {
      "inputs": [],
      "name": "buyPizza",
      "outputs": [],
      "stateMutability": "nonpayable",
      "type": "function"
    },
    {
      "inputs": [],
      "name": "iceCreamPrice",
      "outputs": [
        {
          "internalType": "uint256",
          "name": "",
          "type": "uint256"
        }
      ],
      "stateMutability": "view",
      "type": "function"
    },
    {
      "inputs": [],
      "name": "nairaToPizzaRate",
      "outputs": [
        {
          "internalType": "uint256",
          "name": "",
          "type": "uint256"
        }
      ],
      "stateMutability": "view",
      "type": "function"
    },
    {
      "inputs": [],
      "name": "nairaToken",
      "outputs": [
        {
          "internalType": "contract IERC20",
          "name": "",
          "type": "address"
        }
      ],
      "stateMutability": "view",
      "type": "function"
    },
    {
      "inputs": [],
      "name": "owner",
      "outputs": [
        {
          "internalType": "address",
          "name": "",
          "type": "address"
        }
      ],
      "stateMutability": "view",
      "type": "function"
    },
    {
      "inputs": [],
      "name": "pizzaPrice",
      "outputs": [
        {
          "internalType": "uint256",
          "name": "",
          "type": "uint256"
        }
      ],
      "stateMutability": "view",
      "type": "function"
    },
    {
      "inputs": [],
      "name": "pizzaToken",
      "outputs": [
        {
          "internalType": "contract IERC20",
          "name": "",
          "type": "address"
        }
      ],
      "stateMutability": "view",
      "type": "function"
    },
    {
      "inputs": [
        {
          "internalType": "uint256",
          "name": "nairaAmount",
          "type": "uint256"
        }
      ],
      "name": "swapNairaForPizza",
      "outputs": [],
      "stateMutability": "nonpayable",
      "type": "function"
    },
    {
      "inputs": [
        {
          "internalType": "uint256",
          "name": "_pizzaPrice",
          "type": "uint256"
        },
        {
          "internalType": "uint256",
          "name": "_iceCreamPrice",
          "type": "uint256"
        }
      ],
      "name": "updatePrices",
      "outputs": [],
      "stateMutability": "nonpayable",
      "type": "function"
    },
    {
      "inputs": [
        {
          "internalType": "uint256",
          "name": "_nairaToPizzaRate",
          "type": "uint256"
        }
      ],
      "name": "updateSwapRate",
      "outputs": [],
      "stateMutability": "nonpayable",
      "type": "function"
    },
    {
      "inputs": [
        {
          "internalType": "contract IERC20",
          "name": "token",
          "type": "address"
        },
        {
          "internalType": "uint256",
          "name": "amount",
          "type": "uint256"
        }
      ],
      "name": "withdrawTokens",
      "outputs": [],
      "stateMutability": "nonpayable",
      "type": "function"
    }
  ],
  "bytecode": "0x6080604052670de0b6b3a7640000600355671bc16d674ec8000060045560026005553480156200002e57600080fd5b506040516200127b3803806200127b83398181016040528101906200005491906200019c565b816000806101000a81548173ffffffffffffffffffffffffffffffffffffffff021916908373ffffffffffffffffffffffffffffffffffffffff16021790555080600160006101000a81548173ffffffffffffffffffffffffffffffffffffffff021916908373ffffffffffffffffffffffffffffffffffffffff16021790555033600260006101000a81548173ffffffffffffffffffffffffffffffffffffffff021916908373ffffffffffffffffffffffffffffffffffffffff1602179055505050620001e3565b600080fd5b600073ffffffffffffffffffffffffffffffffffffffff82169050919050565b6000620001508262000123565b9050919050565b6000620001648262000143565b9050919050565b620001768162000157565b81146200018257600080fd5b50565b60008151905062000196816200016b565b92915050565b60008060408385031215620001b657620001b56200011e565b5b6000620001c68582860162000185565b9250506020620001d98582860162000185565b9150509250929050565b61108880620001f36000396000f3fe608060405234801561001057600080fd5b50600436106100b45760003560e01c8063978039d111610071578063978039d114610153578063c9a7029d14610171578063d8fd0f4d1461018f578063ef88d7f014610199578063f4da7fe1146101b5578063fe2371cb146101d3576100b4565b806306b091f9146100b957806326a3e4da146100d55780633d8660fd146100f15780637a35eb66146100fb5780638da5cb5b14610117578063924720bd14610135575b600080fd5b6100d360048036038101906100ce9190610a57565b6101f1565b005b6100ef60048036038101906100ea9190610a97565b610364565b005b6100f9610588565b005b61011560048036038101906101109190610a97565b6106bb565b005b61011f610755565b60405161012c9190610ad3565b60405180910390f35b61013d61077b565b60405161014a9190610afd565b60405180910390f35b61015b610781565b6040516101689190610afd565b60405180910390f35b610179610787565b6040516101869190610afd565b60405180910390f35b61019761078d565b005b6101b360048036038101906101ae9190610b18565b6108c0565b005b6101bd610962565b6040516101ca9190610bb7565b60405180910390f35b6101db610986565b6040516101e89190610bb7565b60405180910390f35b600260009054906101000a900473ffffffffffffffffffffffffffffffffffffffff1673ffffffffffffffffffffffffffffffffffffffff163373ffffffffffffffffffffffffffffffffffffffff1614610281576040517f08c379a000000000000000000000000000000000000000000000000000000000815260040161027890610c2f565b60405180910390fd5b8173ffffffffffffffffffffffffffffffffffffffff1663a9059cbb600260009054906101000a900473ffffffffffffffffffffffffffffffffffffffff16836040518363ffffffff1660e01b81526004016102de929190610c4f565b6020604051808303816000875af11580156102fd573d6000803e3d6000fd5b505050506040513d601f19601f820116820180604052508101906103219190610cb0565b610360576040517f08c379a000000000000000000000000000000000000000000000000000000000815260040161035790610d29565b60405180910390fd5b5050565b6000600554826103749190610d78565b9050600160009054906101000a900473ffffffffffffffffffffffffffffffffffffffff1673ffffffffffffffffffffffffffffffffffffffff166323b872dd3330856040518463ffffffff1660e01b81526004016103d593929190610dba565b6020604051808303816000875af11580156103f4573d6000803e3d6000fd5b505050506040513d601f19601f820116820180604052508101906104189190610cb0565b610457576040517f08c379a000000000000000000000000000000000000000000000000000000000815260040161044e90610e3d565b60405180910390fd5b60008054906101000a900473ffffffffffffffffffffffffffffffffffffffff1673ffffffffffffffffffffffffffffffffffffffff1663a9059cbb33836040518363ffffffff1660e01b81526004016104b2929190610c4f565b6020604051808303816000875af11580156104d1573d6000803e3d6000fd5b505050506040513d601f19601f820116820180604052508101906104f59190610cb0565b610534576040517f08c379a000000000000000000000000000000000000000000000000000000000815260040161052b90610ea9565b60405180910390fd5b3373ffffffffffffffffffffffffffffffffffffffff167f77f92a1b6a1a11de8ca49515ad4c1fad45632dd3442167d74b90b304a3c7a758838360405161057c929190610ec9565b60405180910390a25050565b60008054906101000a900473ffffffffffffffffffffffffffffffffffffffff1673ffffffffffffffffffffffffffffffffffffffff166323b872dd33306004546040518463ffffffff1660e01b81526004016105e793929190610dba565b6020604051808303816000875af1158015610606573d6000803e3d6000fd5b505050506040513d601f19601f8201168201806040525081019061062a9190610cb0565b610669576040517f08c379a000000000000000000000000000000000000000000000000000000000815260040161066090610f3e565b60405180910390fd5b3373ffffffffffffffffffffffffffffffffffffffff167f7a5116c78a9e1ad902408eee81d2bc878da4de341babc5c94da8bb189d924dab6004546040516106b19190610faa565b60405180910390a2565b600260009054906101000a900473ffffffffffffffffffffffffffffffffffffffff1673ffffffffffffffffffffffffffffffffffffffff163373ffffffffffffffffffffffffffffffffffffffff161461074b576040517f08c379a000000000000000000000000000000000000000000000000000000000815260040161074290610c2f565b60405180910390fd5b8060058190555050565b600260009054906101000a900473ffffffffffffffffffffffffffffffffffffffff1681565b60035481565b60055481565b60045481565b60008054906101000a900473ffffffffffffffffffffffffffffffffffffffff1673ffffffffffffffffffffffffffffffffffffffff166323b872dd33306003546040518463ffffffff1660e01b81526004016107ec93929190610dba565b6020604051808303816000875af115801561080b573d6000803e3d6000fd5b505050506040513d601f19601f8201168201806040525081019061082f9190610cb0565b61086e576040517f08c379a000000000000000000000000000000000000000000000000000000000815260040161086590610f3e565b60405180910390fd5b3373ffffffffffffffffffffffffffffffffffffffff167f7a5116c78a9e1ad902408eee81d2bc878da4de341babc5c94da8bb189d924dab6003546040516108b69190611024565b60405180910390a2565b600260009054906101000a900473ffffffffffffffffffffffffffffffffffffffff1673ffffffffffffffffffffffffffffffffffffffff163373ffffffffffffffffffffffffffffffffffffffff1614610950576040517f08c379a000000000000000000000000000000000000000000000000000000000815260040161094790610c2f565b60405180910390fd5b81600381905550806004819055505050565b60008054906101000a900473ffffffffffffffffffffffffffffffffffffffff1681565b600160009054906101000a900473ffffffffffffffffffffffffffffffffffffffff1681565b600080fd5b600073ffffffffffffffffffffffffffffffffffffffff82169050919050565b60006109dc826109b1565b9050919050565b60006109ee826109d1565b9050919050565b6109fe816109e3565b8114610a0957600080fd5b50565b600081359050610a1b816109f5565b92915050565b6000819050919050565b610a3481610a21565b8114610a3f57600080fd5b50565b600081359050610a5181610a2b565b92915050565b60008060408385031215610a6e57610a6d6109ac565b5b6000610a7c85828601610a0c565b9250506020610a8d85828601610a42565b9150509250929050565b600060208284031215610aad57610aac6109ac565b5b6000610abb84828501610a42565b91505092915050565b610acd816109d1565b82525050565b6000602082019050610ae86000830184610ac4565b92915050565b610af781610a21565b82525050565b6000602082019050610b126000830184610aee565b92915050565b60008060408385031215610b2f57610b2e6109ac565b5b6000610b3d85828601610a42565b9250506020610b4e85828601610a42565b9150509250929050565b6000819050919050565b6000610b7d610b78610b73846109b1565b610b58565b6109b1565b9050919050565b6000610b8f82610b62565b9050919050565b6000610ba182610b84565b9050919050565b610bb181610b96565b82525050565b6000602082019050610bcc6000830184610ba8565b92915050565b600082825260208201905092915050565b7f4e6f7420746865206f776e657200000000000000000000000000000000000000600082015250565b6000610c19600d83610bd2565b9150610c2482610be3565b602082019050919050565b60006020820190508181036000830152610c4881610c0c565b9050919050565b6000604082019050610c646000830185610ac4565b610c716020830184610aee565b9392505050565b60008115159050919050565b610c8d81610c78565b8114610c9857600080fd5b50565b600081519050610caa81610c84565b92915050565b600060208284031215610cc657610cc56109ac565b5b6000610cd484828501610c9b565b91505092915050565b7f5769746864726177206661696c65640000000000000000000000000000000000600082015250565b6000610d13600f83610bd2565b9150610d1e82610cdd565b602082019050919050565b60006020820190508181036000830152610d4281610d06565b9050919050565b7f4e487b7100000000000000000000000000000000000000000000000000000000600052601160045260246000fd5b6000610d8382610a21565b9150610d8e83610a21565b9250828202610d9c81610a21565b91508282048414831517610db357610db2610d49565b5b5092915050565b6000606082019050610dcf6000830186610ac4565b610ddc6020830185610ac4565b610de96040830184610aee565b949350505050565b7f4e61697261546f6b656e207472616e73666572206661696c6564000000000000600082015250565b6000610e27601a83610bd2565b9150610e3282610df1565b602082019050919050565b60006020820190508181036000830152610e5681610e1a565b9050919050565b7f50697a7a61546f6b656e207472616e73666572206661696c6564000000000000600082015250565b6000610e93601a83610bd2565b9150610e9e82610e5d565b602082019050919050565b60006020820190508181036000830152610ec281610e86565b9050919050565b6000604082019050610ede6000830185610aee565b610eeb6020830184610aee565b9392505050565b7f5061796d656e74206661696c6564000000000000000000000000000000000000600082015250565b6000610f28600e83610bd2565b9150610f3382610ef2565b602082019050919050565b60006020820190508181036000830152610f5781610f1b565b9050919050565b7f49636520437265616d0000000000000000000000000000000000000000000000600082015250565b6000610f94600983610bd2565b9150610f9f82610f5e565b602082019050919050565b60006040820190508181036000830152610fc381610f87565b9050610fd26020830184610aee565b92915050565b7f50697a7a61000000000000000000000000000000000000000000000000000000600082015250565b600061100e600583610bd2565b915061101982610fd8565b602082019050919050565b6000604082019050818103600083015261103d81611001565b905061104c6020830184610aee565b9291505056fea26469706673582212203f40e62791b38a36e4441952b6287b84b36bdcda66ef786fc5bbbfef0d19ba6c64736f6c63430008180033",
  "linkReferences": {},
  "deployedLinkReferences": {}
}